{
  "contractName": "GatewayRole",
  "abi": [
    {
      "inputs": [],
      "payable": false,
      "stateMutability": "nonpayable",
      "type": "constructor"
    },
    {
      "anonymous": false,
      "inputs": [
        {
          "indexed": true,
          "name": "account",
          "type": "address"
        }
      ],
      "name": "GatewayAdded",
      "type": "event"
    },
    {
      "anonymous": false,
      "inputs": [
        {
          "indexed": true,
          "name": "account",
          "type": "address"
        }
      ],
      "name": "GatewayRemoved",
      "type": "event"
    },
    {
      "constant": true,
      "inputs": [
        {
          "name": "account",
          "type": "address"
        }
      ],
      "name": "isGateway",
      "outputs": [
        {
          "name": "",
          "type": "bool"
        }
      ],
      "payable": false,
      "stateMutability": "view",
      "type": "function"
    },
    {
      "constant": false,
      "inputs": [
        {
          "name": "account",
          "type": "address"
        }
      ],
      "name": "addGateway",
      "outputs": [],
      "payable": false,
      "stateMutability": "nonpayable",
      "type": "function"
    },
    {
      "constant": false,
      "inputs": [],
      "name": "renounceGateway",
      "outputs": [],
      "payable": false,
      "stateMutability": "nonpayable",
      "type": "function"
    }
  ],
  "bytecode": "0x608060405234801561001057600080fd5b506100293361002e640100000000026401000000009004565b6101e8565b61004f8160006100956401000000000261033c179091906401000000009004565b8073ffffffffffffffffffffffffffffffffffffffff167f7137528d21fb7b0b9462886348954009edac49570e27ef9dba8bb3a676fc11e260405160405180910390a250565b600073ffffffffffffffffffffffffffffffffffffffff168173ffffffffffffffffffffffffffffffffffffffff16141515156100d157600080fd5b6100ea8282610154640100000000026401000000009004565b1515156100f657600080fd5b60018260000160008373ffffffffffffffffffffffffffffffffffffffff1673ffffffffffffffffffffffffffffffffffffffff16815260200190815260200160002060006101000a81548160ff0219169083151502179055505050565b60008073ffffffffffffffffffffffffffffffffffffffff168273ffffffffffffffffffffffffffffffffffffffff161415151561019157600080fd5b8260000160008373ffffffffffffffffffffffffffffffffffffffff1673ffffffffffffffffffffffffffffffffffffffff16815260200190815260200160002060009054906101000a900460ff16905092915050565b610418806101f76000396000f300608060405260043610610057576000357c0100000000000000000000000000000000000000000000000000000000900463ffffffff1680631cb900191461005c57806368bb379514610073578063bfe69d9a146100b6575b600080fd5b34801561006857600080fd5b50610071610111565b005b34801561007f57600080fd5b506100b4600480360381019080803573ffffffffffffffffffffffffffffffffffffffff16906020019092919050505061011c565b005b3480156100c257600080fd5b506100f7600480360381019080803573ffffffffffffffffffffffffffffffffffffffff169060200190929190505050610128565b604051808215151515815260200191505060405180910390f35b61011a33610145565b565b6101258161019f565b50565b600061013e8260006101f990919063ffffffff16565b9050919050565b61015981600061028d90919063ffffffff16565b8073ffffffffffffffffffffffffffffffffffffffff167f6ad07cb5676ab639fa3821550f0ec4379900d542e2d8bd8f0f8158d8bd352da260405160405180910390a250565b6101b381600061033c90919063ffffffff16565b8073ffffffffffffffffffffffffffffffffffffffff167f7137528d21fb7b0b9462886348954009edac49570e27ef9dba8bb3a676fc11e260405160405180910390a250565b60008073ffffffffffffffffffffffffffffffffffffffff168273ffffffffffffffffffffffffffffffffffffffff161415151561023657600080fd5b8260000160008373ffffffffffffffffffffffffffffffffffffffff1673ffffffffffffffffffffffffffffffffffffffff16815260200190815260200160002060009054906101000a900460ff16905092915050565b600073ffffffffffffffffffffffffffffffffffffffff168173ffffffffffffffffffffffffffffffffffffffff16141515156102c957600080fd5b6102d382826101f9565b15156102de57600080fd5b60008260000160008373ffffffffffffffffffffffffffffffffffffffff1673ffffffffffffffffffffffffffffffffffffffff16815260200190815260200160002060006101000a81548160ff0219169083151502179055505050565b600073ffffffffffffffffffffffffffffffffffffffff168173ffffffffffffffffffffffffffffffffffffffff161415151561037857600080fd5b61038282826101f9565b15151561038e57600080fd5b60018260000160008373ffffffffffffffffffffffffffffffffffffffff1673ffffffffffffffffffffffffffffffffffffffff16815260200190815260200160002060006101000a81548160ff02191690831515021790555050505600a165627a7a723058207d3e6c9c57598498d0d187b77f012a4037c465339a746d10ed39d2d64420853a0029",
  "source": "pragma solidity ^0.4.24;\r\n\r\n// Import the library 'Roles'\r\nimport \"./Roles.sol\";\r\n\r\n// Define a contract 'GatewayRole' to manage this role - add, remove, check\r\ncontract GatewayRole {\r\n    using Roles for Roles.Role;\r\n\r\n    // Define 2 events, one for Adding, and other for Removing\r\n    event GatewayAdded(address indexed account);\r\n    event GatewayRemoved(address indexed account);\r\n\r\n    // Define a struct 'gateways' by inheriting from 'Roles' library, struct Role\r\n    Roles.Role private gateways;\r\n\r\n    // In the constructor make the address that deploys this contract the 1st gateway\r\n    constructor() public {\r\n        _addGateway(msg.sender);\r\n    }\r\n\r\n    // Define a modifier that checks to see if msg.sender has the appropriate role\r\n    modifier onlyGateway() {\r\n        require(isGateway(msg.sender));\r\n        _;\r\n    }\r\n\r\n    // Define a function 'isGateway' to check this role\r\n    function isGateway(address account) public view returns (bool) {\r\n        return gateways.has(account);\r\n    }\r\n\r\n    // Define a function 'addGateway' that adds this role\r\n    function addGateway(address account) public {\r\n        _addGateway(account);\r\n    }\r\n\r\n    // Define a function 'renounceGateway' to renounce this role\r\n    function renounceGateway() public {\r\n        _removeGateway(msg.sender);\r\n    }\r\n\r\n    // Define an internal function '_addGateway' to add this role, called by 'addGateway'\r\n    function _addGateway(address account) internal {\r\n        gateways.add(account);\r\n        emit GatewayAdded(account);\r\n    }\r\n\r\n    // Define an internal function '_removeGateway' to remove this role, called by 'removeGateway'\r\n    function _removeGateway(address account) internal {\r\n        gateways.remove(account);\r\n        emit GatewayRemoved(account);\r\n    }\r\n}",
  "sourcePath": "C:\\Users\\bhavy\\OneDrive\\Desktop\\Purdue\\First Sem\\CNIT 591 Independent Study\\Implementation\\contracts\\accessControl\\GatewayRole.sol",
  "compiler": {
    "name": "solc",
    "version": "0.4.24+commit.e67f0147.Emscripten.clang"
  },
  "schemaVersion": "2.0.1",
  "updatedAt": "2021-12-06T19:07:27.134Z"
}