{
  "contractName": "LawEnforcementRole",
  "abi": [
    {
      "inputs": [],
      "payable": false,
      "stateMutability": "nonpayable",
      "type": "constructor"
    },
    {
      "anonymous": false,
      "inputs": [
        {
          "indexed": true,
          "name": "account",
          "type": "address"
        }
      ],
      "name": "LawEnforcementAdded",
      "type": "event"
    },
    {
      "constant": true,
      "inputs": [
        {
          "name": "account",
          "type": "address"
        }
      ],
      "name": "isLawEnforcement",
      "outputs": [
        {
          "name": "",
          "type": "bool"
        }
      ],
      "payable": false,
      "stateMutability": "view",
      "type": "function"
    },
    {
      "constant": false,
      "inputs": [
        {
          "name": "account",
          "type": "address"
        }
      ],
      "name": "addLawEnforcement",
      "outputs": [],
      "payable": false,
      "stateMutability": "nonpayable",
      "type": "function"
    }
  ],
  "bytecode": "0x608060405234801561001057600080fd5b506100293361002e640100000000026401000000009004565b6101e8565b61004f81600061009564010000000002610206179091906401000000009004565b8073ffffffffffffffffffffffffffffffffffffffff167ffdad9da2de5f7312e3d0a8cdf7a5cf09c54a9fd448d2f45ae7cb730bbf8de6e760405160405180910390a250565b600073ffffffffffffffffffffffffffffffffffffffff168173ffffffffffffffffffffffffffffffffffffffff16141515156100d157600080fd5b6100ea8282610154640100000000026401000000009004565b1515156100f657600080fd5b60018260000160008373ffffffffffffffffffffffffffffffffffffffff1673ffffffffffffffffffffffffffffffffffffffff16815260200190815260200160002060006101000a81548160ff0219169083151502179055505050565b60008073ffffffffffffffffffffffffffffffffffffffff168273ffffffffffffffffffffffffffffffffffffffff161415151561019157600080fd5b8260000160008373ffffffffffffffffffffffffffffffffffffffff1673ffffffffffffffffffffffffffffffffffffffff16815260200190815260200160002060009054906101000a900460ff16905092915050565b6102e2806101f76000396000f30060806040526004361061004c576000357c0100000000000000000000000000000000000000000000000000000000900463ffffffff16806387eb66ae146100515780639dd0825914610094575b600080fd5b34801561005d57600080fd5b50610092600480360381019080803573ffffffffffffffffffffffffffffffffffffffff1690602001909291905050506100ef565b005b3480156100a057600080fd5b506100d5600480360381019080803573ffffffffffffffffffffffffffffffffffffffff1690602001909291905050506100fb565b604051808215151515815260200191505060405180910390f35b6100f881610118565b50565b600061011182600061017290919063ffffffff16565b9050919050565b61012c81600061020690919063ffffffff16565b8073ffffffffffffffffffffffffffffffffffffffff167ffdad9da2de5f7312e3d0a8cdf7a5cf09c54a9fd448d2f45ae7cb730bbf8de6e760405160405180910390a250565b60008073ffffffffffffffffffffffffffffffffffffffff168273ffffffffffffffffffffffffffffffffffffffff16141515156101af57600080fd5b8260000160008373ffffffffffffffffffffffffffffffffffffffff1673ffffffffffffffffffffffffffffffffffffffff16815260200190815260200160002060009054906101000a900460ff16905092915050565b600073ffffffffffffffffffffffffffffffffffffffff168173ffffffffffffffffffffffffffffffffffffffff161415151561024257600080fd5b61024c8282610172565b15151561025857600080fd5b60018260000160008373ffffffffffffffffffffffffffffffffffffffff1673ffffffffffffffffffffffffffffffffffffffff16815260200190815260200160002060006101000a81548160ff02191690831515021790555050505600a165627a7a72305820051fea50c8eacb5cad348d53b3af5a3336c9fd281b7e21faa8d92ea5b3cc524a0029",
  "source": "pragma solidity ^0.4.24;\r\n\r\n// Import the library 'Roles'\r\nimport \"./Roles.sol\";\r\n\r\n// Define a contract 'LawEnforcementRole' to manage this role - add, remove, check\r\ncontract LawEnforcementRole {\r\n    using Roles for Roles.Role;\r\n\r\n    // Define 2 events, one for Adding, and other for Removing\r\n    event LawEnforcementAdded(address indexed account);\r\n    // event LawEnforcementRemoved(address indexed account);\r\n\r\n    // Define a struct 'lawEnforcements' by inheriting from 'Roles' library, struct Role\r\n    Roles.Role private lawEnforcements;\r\n\r\n    // In the constructor make the address that deploys this contract the 1st manufacturer\r\n    constructor() public {\r\n        _addLawEnforcement(msg.sender);\r\n    }\r\n\r\n    // Define a modifier that checks to see if msg.sender has the appropriate role\r\n    modifier onlyLawEnforcement() {\r\n        require(isLawEnforcement(msg.sender));\r\n        _;\r\n    }\r\n\r\n    // Define a function 'isLawEnforcement' to check this role\r\n    function isLawEnforcement(address account) public view returns (bool) {\r\n        return lawEnforcements.has(account);\r\n    }\r\n\r\n    // Define a function 'addLawEnforcement' that adds this role\r\n    function addLawEnforcement(address account) public {\r\n        _addLawEnforcement(account);\r\n    }\r\n\r\n    // Define a function 'renounceLawEnforcement' to renounce this role\r\n    // function renounceLawEnforcement() public {\r\n    //     _removeLawEnforcement(msg.sender);\r\n    // }\r\n\r\n    // Define an internal function '_addLawEnforcement' to add this role, called by 'addLawEnforcement'\r\n    function _addLawEnforcement(address account) internal {\r\n        lawEnforcements.add(account);\r\n        emit LawEnforcementAdded(account);\r\n    }\r\n\r\n//     // Define an internal function '_removeLawEnforcement' to remove this role, called by 'removeLawEnforcement'\r\n//     function _removeLawEnforcement(address account) internal {\r\n//         lawEnforcements.remove(account);\r\n//         emit ManufacturerRemoved(account);\r\n//     }\r\n}",
  "sourcePath": "C:\\Users\\bhavy\\OneDrive\\Desktop\\Purdue\\First Sem\\CNIT 591 Independent Study\\Implementation\\contracts\\accessControl\\LawEnforcementRole.sol",
  "compiler": {
    "name": "solc",
    "version": "0.4.24+commit.e67f0147.Emscripten.clang"
  },
  "schemaVersion": "2.0.1",
  "updatedAt": "2021-12-06T19:07:27.135Z"
}