{
  "contractName": "VehicleRole",
  "abi": [
    {
      "inputs": [],
      "payable": false,
      "stateMutability": "nonpayable",
      "type": "constructor"
    },
    {
      "anonymous": false,
      "inputs": [
        {
          "indexed": true,
          "name": "account",
          "type": "address"
        }
      ],
      "name": "VehicleAdded",
      "type": "event"
    },
    {
      "anonymous": false,
      "inputs": [
        {
          "indexed": true,
          "name": "account",
          "type": "address"
        }
      ],
      "name": "VehicleRemoved",
      "type": "event"
    },
    {
      "constant": true,
      "inputs": [
        {
          "name": "account",
          "type": "address"
        }
      ],
      "name": "isVehicle",
      "outputs": [
        {
          "name": "",
          "type": "bool"
        }
      ],
      "payable": false,
      "stateMutability": "view",
      "type": "function"
    },
    {
      "constant": false,
      "inputs": [
        {
          "name": "account",
          "type": "address"
        }
      ],
      "name": "addVehicle",
      "outputs": [],
      "payable": false,
      "stateMutability": "nonpayable",
      "type": "function"
    }
  ],
  "bytecode": "0x608060405234801561001057600080fd5b506100293361002e640100000000026401000000009004565b6101e8565b61004f81600061009564010000000002610206179091906401000000009004565b8073ffffffffffffffffffffffffffffffffffffffff167f145ed2edaab49e25a80f32645f59ced2618875fd77f71bffb321ffcb138de4f460405160405180910390a250565b600073ffffffffffffffffffffffffffffffffffffffff168173ffffffffffffffffffffffffffffffffffffffff16141515156100d157600080fd5b6100ea8282610154640100000000026401000000009004565b1515156100f657600080fd5b60018260000160008373ffffffffffffffffffffffffffffffffffffffff1673ffffffffffffffffffffffffffffffffffffffff16815260200190815260200160002060006101000a81548160ff0219169083151502179055505050565b60008073ffffffffffffffffffffffffffffffffffffffff168273ffffffffffffffffffffffffffffffffffffffff161415151561019157600080fd5b8260000160008373ffffffffffffffffffffffffffffffffffffffff1673ffffffffffffffffffffffffffffffffffffffff16815260200190815260200160002060009054906101000a900460ff16905092915050565b6102e2806101f76000396000f30060806040526004361061004c576000357c0100000000000000000000000000000000000000000000000000000000900463ffffffff1680638462861614610051578063cf1d6cd414610094575b600080fd5b34801561005d57600080fd5b50610092600480360381019080803573ffffffffffffffffffffffffffffffffffffffff1690602001909291905050506100ef565b005b3480156100a057600080fd5b506100d5600480360381019080803573ffffffffffffffffffffffffffffffffffffffff1690602001909291905050506100fb565b604051808215151515815260200191505060405180910390f35b6100f881610118565b50565b600061011182600061017290919063ffffffff16565b9050919050565b61012c81600061020690919063ffffffff16565b8073ffffffffffffffffffffffffffffffffffffffff167f145ed2edaab49e25a80f32645f59ced2618875fd77f71bffb321ffcb138de4f460405160405180910390a250565b60008073ffffffffffffffffffffffffffffffffffffffff168273ffffffffffffffffffffffffffffffffffffffff16141515156101af57600080fd5b8260000160008373ffffffffffffffffffffffffffffffffffffffff1673ffffffffffffffffffffffffffffffffffffffff16815260200190815260200160002060009054906101000a900460ff16905092915050565b600073ffffffffffffffffffffffffffffffffffffffff168173ffffffffffffffffffffffffffffffffffffffff161415151561024257600080fd5b61024c8282610172565b15151561025857600080fd5b60018260000160008373ffffffffffffffffffffffffffffffffffffffff1673ffffffffffffffffffffffffffffffffffffffff16815260200190815260200160002060006101000a81548160ff02191690831515021790555050505600a165627a7a7230582060efd65ad12f371606de232c31796ff4877c74b0c147ff220ac0f91245e2abdd0029",
  "source": "pragma solidity ^0.4.24;\r\n\r\n// Import the library 'Roles'\r\nimport \"./Roles.sol\";\r\n\r\n// Define a contract 'VehicleRole' to manage this role - add, remove, check\r\ncontract VehicleRole {\r\n    using Roles for Roles.Role;\r\n\r\n    // Define 2 events, one for Adding, and other for Removing\r\n    event VehicleAdded(address indexed account);\r\n    event VehicleRemoved(address indexed account);\r\n\r\n    // Define a struct 'vehicles' by inheriting from 'Roles' library, struct Role\r\n    Roles.Role private vehicles;\r\n\r\n    // In the constructor make the address that deploys this contract the 1st vehicle\r\n    constructor() public {\r\n        _addVehicle(msg.sender);\r\n    }\r\n\r\n    // Define a modifier that checks to see if msg.sender has the appropriate role\r\n    modifier onlyVehicle() {\r\n        require(isVehicle(msg.sender));\r\n        _;\r\n    }\r\n\r\n    // Define a function 'isVehicle' to check this role\r\n    function isVehicle(address account) public view returns (bool) {\r\n        return vehicles.has(account);\r\n    }\r\n\r\n    // Define a function 'addVehicle' that adds this role\r\n    function addVehicle(address account) public {\r\n        _addVehicle(account);\r\n    }\r\n\r\n    // Define an internal function '_addVehicle' to add this role, called by 'addVehicle'\r\n    function _addVehicle(address account) internal {\r\n        vehicles.add(account);\r\n        emit VehicleAdded(account);\r\n    }\r\n\r\n    // Define an internal function '_removeVehicle' to remove this role, called by 'removeVehicle'\r\n    function _removeVehicle(address account) internal {\r\n        vehicles.remove(account);\r\n        emit VehicleRemoved(account);\r\n    }\r\n}",
  "sourcePath": "C:\\Users\\bhavy\\OneDrive\\Desktop\\Purdue\\First Sem\\CNIT 591 Independent Study\\Implementation\\contracts\\accessControl\\VehicleRole.sol",
  "compiler": {
    "name": "solc",
    "version": "0.4.24+commit.e67f0147.Emscripten.clang"
  },
  "schemaVersion": "2.0.1",
  "updatedAt": "2021-12-06T19:07:27.135Z"
}