{
  "contractName": "VehicleMonitor",
  "abi": [
    {
      "constant": false,
      "inputs": [],
      "name": "renounceGateway",
      "outputs": [],
      "payable": false,
      "stateMutability": "nonpayable",
      "type": "function"
    },
    {
      "constant": false,
      "inputs": [
        {
          "name": "account",
          "type": "address"
        }
      ],
      "name": "addGateway",
      "outputs": [],
      "payable": false,
      "stateMutability": "nonpayable",
      "type": "function"
    },
    {
      "constant": false,
      "inputs": [],
      "name": "renounceOwnership",
      "outputs": [],
      "payable": false,
      "stateMutability": "nonpayable",
      "type": "function"
    },
    {
      "constant": false,
      "inputs": [
        {
          "name": "account",
          "type": "address"
        }
      ],
      "name": "addLawEnforcement",
      "outputs": [],
      "payable": false,
      "stateMutability": "nonpayable",
      "type": "function"
    },
    {
      "constant": true,
      "inputs": [],
      "name": "owner",
      "outputs": [
        {
          "name": "",
          "type": "address"
        }
      ],
      "payable": false,
      "stateMutability": "view",
      "type": "function"
    },
    {
      "constant": true,
      "inputs": [],
      "name": "isOwner",
      "outputs": [
        {
          "name": "",
          "type": "bool"
        }
      ],
      "payable": false,
      "stateMutability": "view",
      "type": "function"
    },
    {
      "constant": true,
      "inputs": [],
      "name": "addressofsender",
      "outputs": [
        {
          "name": "",
          "type": "address"
        }
      ],
      "payable": false,
      "stateMutability": "view",
      "type": "function"
    },
    {
      "constant": true,
      "inputs": [
        {
          "name": "account",
          "type": "address"
        }
      ],
      "name": "isLawEnforcement",
      "outputs": [
        {
          "name": "",
          "type": "bool"
        }
      ],
      "payable": false,
      "stateMutability": "view",
      "type": "function"
    },
    {
      "constant": true,
      "inputs": [
        {
          "name": "account",
          "type": "address"
        }
      ],
      "name": "isGateway",
      "outputs": [
        {
          "name": "",
          "type": "bool"
        }
      ],
      "payable": false,
      "stateMutability": "view",
      "type": "function"
    },
    {
      "constant": false,
      "inputs": [
        {
          "name": "newOwner",
          "type": "address"
        }
      ],
      "name": "transferOwnership",
      "outputs": [],
      "payable": false,
      "stateMutability": "nonpayable",
      "type": "function"
    },
    {
      "inputs": [],
      "payable": true,
      "stateMutability": "payable",
      "type": "constructor"
    },
    {
      "anonymous": false,
      "inputs": [
        {
          "indexed": true,
          "name": "state",
          "type": "uint256"
        },
        {
          "indexed": true,
          "name": "vehicle",
          "type": "address"
        },
        {
          "indexed": true,
          "name": "location",
          "type": "bytes32"
        }
      ],
      "name": "Danger",
      "type": "event"
    },
    {
      "anonymous": false,
      "inputs": [
        {
          "indexed": false,
          "name": "vehicle",
          "type": "address"
        }
      ],
      "name": "Blacklist",
      "type": "event"
    },
    {
      "anonymous": false,
      "inputs": [
        {
          "indexed": true,
          "name": "vehicle",
          "type": "address"
        },
        {
          "indexed": true,
          "name": "location",
          "type": "bytes32"
        }
      ],
      "name": "BlacklistDetected",
      "type": "event"
    },
    {
      "anonymous": false,
      "inputs": [
        {
          "indexed": true,
          "name": "account",
          "type": "address"
        }
      ],
      "name": "LawEnforcementAdded",
      "type": "event"
    },
    {
      "anonymous": false,
      "inputs": [
        {
          "indexed": true,
          "name": "account",
          "type": "address"
        }
      ],
      "name": "GatewayAdded",
      "type": "event"
    },
    {
      "anonymous": false,
      "inputs": [
        {
          "indexed": true,
          "name": "account",
          "type": "address"
        }
      ],
      "name": "GatewayRemoved",
      "type": "event"
    },
    {
      "anonymous": false,
      "inputs": [
        {
          "indexed": true,
          "name": "oldOwner",
          "type": "address"
        },
        {
          "indexed": true,
          "name": "newOwner",
          "type": "address"
        }
      ],
      "name": "TransferOwnership",
      "type": "event"
    },
    {
      "constant": false,
      "inputs": [
        {
          "name": "state",
          "type": "uint8"
        },
        {
          "name": "vehicleAddress",
          "type": "address"
        },
        {
          "name": "location",
          "type": "bytes32"
        }
      ],
      "name": "danger",
      "outputs": [],
      "payable": false,
      "stateMutability": "nonpayable",
      "type": "function"
    },
    {
      "constant": false,
      "inputs": [
        {
          "name": "vehicleAddress",
          "type": "address"
        }
      ],
      "name": "blacklist",
      "outputs": [],
      "payable": false,
      "stateMutability": "nonpayable",
      "type": "function"
    },
    {
      "constant": true,
      "inputs": [
        {
          "name": "vehicleAddress",
          "type": "address"
        }
      ],
      "name": "getRating",
      "outputs": [
        {
          "name": "",
          "type": "uint256"
        }
      ],
      "payable": false,
      "stateMutability": "view",
      "type": "function"
    },
    {
      "constant": false,
      "inputs": [],
      "name": "destroyContract",
      "outputs": [],
      "payable": false,
      "stateMutability": "nonpayable",
      "type": "function"
    }
  ],
  "bytecode": "0x6080604052336000806101000a81548173ffffffffffffffffffffffffffffffffffffffff021916908373ffffffffffffffffffffffffffffffffffffffff1602179055506000809054906101000a900473ffffffffffffffffffffffffffffffffffffffff1673ffffffffffffffffffffffffffffffffffffffff16600073ffffffffffffffffffffffffffffffffffffffff167f5c486528ec3e3f0ea91181cff8116f02bfa350e03b8b6f12e00765adbb5af85c60405160405180910390a3620000da336200013b640100000000026401000000009004565b620000f433620001a5640100000000026401000000009004565b33600360006101000a81548173ffffffffffffffffffffffffffffffffffffffff021916908373ffffffffffffffffffffffffffffffffffffffff16021790555062000367565b6200015f8160016200020f6401000000000262001018179091906401000000009004565b8073ffffffffffffffffffffffffffffffffffffffff167f7137528d21fb7b0b9462886348954009edac49570e27ef9dba8bb3a676fc11e260405160405180910390a250565b620001c98160026200020f6401000000000262001018179091906401000000009004565b8073ffffffffffffffffffffffffffffffffffffffff167ffdad9da2de5f7312e3d0a8cdf7a5cf09c54a9fd448d2f45ae7cb730bbf8de6e760405160405180910390a250565b600073ffffffffffffffffffffffffffffffffffffffff168173ffffffffffffffffffffffffffffffffffffffff16141515156200024c57600080fd5b620002678282620002d2640100000000026401000000009004565b1515156200027457600080fd5b60018260000160008373ffffffffffffffffffffffffffffffffffffffff1673ffffffffffffffffffffffffffffffffffffffff16815260200190815260200160002060006101000a81548160ff0219169083151502179055505050565b60008073ffffffffffffffffffffffffffffffffffffffff168273ffffffffffffffffffffffffffffffffffffffff16141515156200031057600080fd5b8260000160008373ffffffffffffffffffffffffffffffffffffffff1673ffffffffffffffffffffffffffffffffffffffff16815260200190815260200160002060009054906101000a900460ff16905092915050565b6110f480620003776000396000f3006080604052600436106100d0576000357c0100000000000000000000000000000000000000000000000000000000900463ffffffff168063092a5cce146100d55780631cb90019146100ec57806368bb379514610103578063715018a61461014657806380fc9c0e1461015d57806387eb66ae146101b45780638da5cb5b146101f75780638f32d59b1461024e57806399779ec41461027d5780639dd08259146102d4578063bfe69d9a1461032f578063d2d5455e1461038a578063f2fde38b146103e8578063f9f92be41461042b575b600080fd5b3480156100e157600080fd5b506100ea61046e565b005b3480156100f857600080fd5b50610101610501565b005b34801561010f57600080fd5b50610144600480360381019080803573ffffffffffffffffffffffffffffffffffffffff16906020019092919050505061050c565b005b34801561015257600080fd5b5061015b610518565b005b34801561016957600080fd5b5061019e600480360381019080803573ffffffffffffffffffffffffffffffffffffffff169060200190929190505050610681565b6040518082815260200191505060405180910390f35b3480156101c057600080fd5b506101f5600480360381019080803573ffffffffffffffffffffffffffffffffffffffff169060200190929190505050610774565b005b34801561020357600080fd5b5061020c610780565b604051808273ffffffffffffffffffffffffffffffffffffffff1673ffffffffffffffffffffffffffffffffffffffff16815260200191505060405180910390f35b34801561025a57600080fd5b506102636107a9565b604051808215151515815260200191505060405180910390f35b34801561028957600080fd5b50610292610800565b604051808273ffffffffffffffffffffffffffffffffffffffff1673ffffffffffffffffffffffffffffffffffffffff16815260200191505060405180910390f35b3480156102e057600080fd5b50610315600480360381019080803573ffffffffffffffffffffffffffffffffffffffff169060200190929190505050610808565b604051808215151515815260200191505060405180910390f35b34801561033b57600080fd5b50610370600480360381019080803573ffffffffffffffffffffffffffffffffffffffff169060200190929190505050610825565b604051808215151515815260200191505060405180910390f35b34801561039657600080fd5b506103e6600480360381019080803560ff169060200190929190803573ffffffffffffffffffffffffffffffffffffffff1690602001909291908035600019169060200190929190505050610842565b005b3480156103f457600080fd5b50610429600480360381019080803573ffffffffffffffffffffffffffffffffffffffff169060200190929190505050610b45565b005b34801561043757600080fd5b5061046c600480360381019080803573ffffffffffffffffffffffffffffffffffffffff169060200190929190505050610bfb565b005b600360009054906101000a900473ffffffffffffffffffffffffffffffffffffffff1673ffffffffffffffffffffffffffffffffffffffff163373ffffffffffffffffffffffffffffffffffffffff1614156104ff57600360009054906101000a900473ffffffffffffffffffffffffffffffffffffffff1673ffffffffffffffffffffffffffffffffffffffff16ff5b565b61050a33610ccd565b565b61051581610d27565b50565b610520610780565b73ffffffffffffffffffffffffffffffffffffffff163373ffffffffffffffffffffffffffffffffffffffff161415156105c2576040517f08c379a00000000000000000000000000000000000000000000000000000000081526004018080602001828103825260168152602001807f6f6e6c79206f776e65722063616e20646f20746869730000000000000000000081525060200191505060405180910390fd5b600073ffffffffffffffffffffffffffffffffffffffff166000809054906101000a900473ffffffffffffffffffffffffffffffffffffffff1673ffffffffffffffffffffffffffffffffffffffff167f5c486528ec3e3f0ea91181cff8116f02bfa350e03b8b6f12e00765adbb5af85c60405160405180910390a360008060006101000a81548173ffffffffffffffffffffffffffffffffffffffff021916908373ffffffffffffffffffffffffffffffffffffffff160217905550565b600061068b610780565b73ffffffffffffffffffffffffffffffffffffffff163373ffffffffffffffffffffffffffffffffffffffff1614151561072d576040517f08c379a00000000000000000000000000000000000000000000000000000000081526004018080602001828103825260168152602001807f6f6e6c79206f776e65722063616e20646f20746869730000000000000000000081525060200191505060405180910390fd5b600460008373ffffffffffffffffffffffffffffffffffffffff1673ffffffffffffffffffffffffffffffffffffffff168152602001908152602001600020549050919050565b61077d81610d81565b50565b60008060009054906101000a900473ffffffffffffffffffffffffffffffffffffffff16905090565b60008060009054906101000a900473ffffffffffffffffffffffffffffffffffffffff1673ffffffffffffffffffffffffffffffffffffffff163373ffffffffffffffffffffffffffffffffffffffff1614905090565b600033905090565b600061081e826002610ddb90919063ffffffff16565b9050919050565b600061083b826001610ddb90919063ffffffff16565b9050919050565b61084b33610825565b151561085657600080fd5b600560008373ffffffffffffffffffffffffffffffffffffffff1673ffffffffffffffffffffffffffffffffffffffff16815260200190815260200160002060009054906101000a900460ff16156108f15780600019168273ffffffffffffffffffffffffffffffffffffffff167f6ee8895e73a08ec0e5c73f0e5e26c14720cd5089309009f209c6731a2c917c3960405160405180910390a35b600060028111156108fe57fe5b83600281111561090a57fe5b141561099b576001600460008473ffffffffffffffffffffffffffffffffffffffff1673ffffffffffffffffffffffffffffffffffffffff1681526020019081526020016000205401600460008473ffffffffffffffffffffffffffffffffffffffff1673ffffffffffffffffffffffffffffffffffffffff16815260200190815260200160002081905550610aec565b600160028111156109a857fe5b8360028111156109b457fe5b1415610a45576002600460008473ffffffffffffffffffffffffffffffffffffffff1673ffffffffffffffffffffffffffffffffffffffff1681526020019081526020016000205401600460008473ffffffffffffffffffffffffffffffffffffffff1673ffffffffffffffffffffffffffffffffffffffff16815260200190815260200160002081905550610aeb565b600280811115610a5157fe5b836002811115610a5d57fe5b1415610aea576003600460008473ffffffffffffffffffffffffffffffffffffffff1673ffffffffffffffffffffffffffffffffffffffff1681526020019081526020016000205401600460008473ffffffffffffffffffffffffffffffffffffffff1673ffffffffffffffffffffffffffffffffffffffff168152602001908152602001600020819055505b5b5b80600019168273ffffffffffffffffffffffffffffffffffffffff16846002811115610b1457fe5b7f9c04d9f0369433d61c6dd086ffa4a7de2d3204e3ed162f7fa16c39b018013a7c60405160405180910390a4505050565b610b4d610780565b73ffffffffffffffffffffffffffffffffffffffff163373ffffffffffffffffffffffffffffffffffffffff16141515610bef576040517f08c379a00000000000000000000000000000000000000000000000000000000081526004018080602001828103825260168152602001807f6f6e6c79206f776e65722063616e20646f20746869730000000000000000000081525060200191505060405180910390fd5b610bf881610e6f565b50565b610c0433610808565b1515610c0f57600080fd5b6001600560008373ffffffffffffffffffffffffffffffffffffffff1673ffffffffffffffffffffffffffffffffffffffff16815260200190815260200160002060006101000a81548160ff0219169083151502179055507f7811ed4e4b787e4f0f046ffb4a5ec1e064b0eb6d191ffabb66270ed8be89b32581604051808273ffffffffffffffffffffffffffffffffffffffff1673ffffffffffffffffffffffffffffffffffffffff16815260200191505060405180910390a150565b610ce1816001610f6990919063ffffffff16565b8073ffffffffffffffffffffffffffffffffffffffff167f6ad07cb5676ab639fa3821550f0ec4379900d542e2d8bd8f0f8158d8bd352da260405160405180910390a250565b610d3b81600161101890919063ffffffff16565b8073ffffffffffffffffffffffffffffffffffffffff167f7137528d21fb7b0b9462886348954009edac49570e27ef9dba8bb3a676fc11e260405160405180910390a250565b610d9581600261101890919063ffffffff16565b8073ffffffffffffffffffffffffffffffffffffffff167ffdad9da2de5f7312e3d0a8cdf7a5cf09c54a9fd448d2f45ae7cb730bbf8de6e760405160405180910390a250565b60008073ffffffffffffffffffffffffffffffffffffffff168273ffffffffffffffffffffffffffffffffffffffff1614151515610e1857600080fd5b8260000160008373ffffffffffffffffffffffffffffffffffffffff1673ffffffffffffffffffffffffffffffffffffffff16815260200190815260200160002060009054906101000a900460ff16905092915050565b600073ffffffffffffffffffffffffffffffffffffffff168173ffffffffffffffffffffffffffffffffffffffff1614151515610eab57600080fd5b8073ffffffffffffffffffffffffffffffffffffffff166000809054906101000a900473ffffffffffffffffffffffffffffffffffffffff1673ffffffffffffffffffffffffffffffffffffffff167f5c486528ec3e3f0ea91181cff8116f02bfa350e03b8b6f12e00765adbb5af85c60405160405180910390a3806000806101000a81548173ffffffffffffffffffffffffffffffffffffffff021916908373ffffffffffffffffffffffffffffffffffffffff16021790555050565b600073ffffffffffffffffffffffffffffffffffffffff168173ffffffffffffffffffffffffffffffffffffffff1614151515610fa557600080fd5b610faf8282610ddb565b1515610fba57600080fd5b60008260000160008373ffffffffffffffffffffffffffffffffffffffff1673ffffffffffffffffffffffffffffffffffffffff16815260200190815260200160002060006101000a81548160ff0219169083151502179055505050565b600073ffffffffffffffffffffffffffffffffffffffff168173ffffffffffffffffffffffffffffffffffffffff161415151561105457600080fd5b61105e8282610ddb565b15151561106a57600080fd5b60018260000160008373ffffffffffffffffffffffffffffffffffffffff1673ffffffffffffffffffffffffffffffffffffffff16815260200190815260200160002060006101000a81548160ff02191690831515021790555050505600a165627a7a72305820f520dd64e08a2f2aff62ac2880d88da80221d450595d1804f95c9fe40285011d0029",
  "source": "pragma solidity ^0.4.24;\r\n// Define a contract 'Supplychain'\r\n\r\nimport \"../core/Ownable.sol\";\r\nimport \"../accessControl/GatewayRole.sol\";\r\nimport \"../accessControl/LawEnforcementRole.sol\";\r\n\r\ncontract VehicleMonitor is Ownable,GatewayRole,LawEnforcementRole {\r\n\r\n    address chainOwner;\r\n\r\n    mapping(address => uint) dangerRatings;\r\n    mapping(address => bool) blacklistedVehicles;\r\n\r\n    event Danger(uint indexed state,address indexed vehicle, bytes32 indexed location);\r\n    event Blacklist(address vehicle);\r\n    event BlacklistDetected(address indexed vehicle, bytes32 indexed location);\r\n\r\n    enum State{\r\n        Speeding,  //0\r\n        DrowsyDriving,  //1\r\n        Crashed//2\r\n    }\r\n\r\n    constructor() public payable {\r\n     chainOwner = msg.sender;\r\n    }\r\n\r\n    function danger(State state,address vehicleAddress, bytes32 location) public onlyGateway{\r\n        // check if vehicle\r\n        // check if blacklisted\r\n        if (blacklistedVehicles[vehicleAddress]){\r\n            emit BlacklistDetected(vehicleAddress,location);\r\n        }\r\n        if(state == State.Speeding){\r\n            dangerRatings[vehicleAddress] = dangerRatings[vehicleAddress] + 1;\r\n        }else if(state == State.DrowsyDriving){\r\n            dangerRatings[vehicleAddress] = dangerRatings[vehicleAddress] + 2;\r\n        }else if(state == State.Crashed){\r\n            dangerRatings[vehicleAddress] = dangerRatings[vehicleAddress] + 3;\r\n        }\r\n        emit Danger(uint(state),vehicleAddress,location);\r\n    }\r\n\r\n    function blacklist(address vehicleAddress) public onlyLawEnforcement{\r\n        blacklistedVehicles[vehicleAddress] = true;\r\n        emit Blacklist(vehicleAddress);\r\n    }\r\n    function getRating(address vehicleAddress) public onlyOwner view returns (uint) {\r\n        return dangerRatings[vehicleAddress];\r\n    }\r\n    function destroyContract() public {\r\n        if (msg.sender == chainOwner) {\r\n        selfdestruct(chainOwner);\r\n        }\r\n    }\r\n\r\n    // Define a modifer that checks to see if msg.sender == owner of the contract\r\n  modifier onlyOwner() {\r\n    require(msg.sender == owner(),\"only owner can do this\");\r\n    _;\r\n  }\r\n\r\n\r\n}",
  "sourcePath": "C:\\Users\\bhavy\\OneDrive\\Desktop\\Purdue\\First Sem\\CNIT 591 Independent Study\\Implementation\\contracts\\base\\VehicleMonitor.sol",
  "compiler": {
    "name": "solc",
    "version": "0.4.24+commit.e67f0147.Emscripten.clang"
  },
  "schemaVersion": "2.0.1",
  "updatedAt": "2021-12-06T19:07:27.136Z"
}